:1000000038C0D2C1D2C1D2C1D2C1D2C172C1E8C13D
:10001000E8C1E8C1E8C1CF93DF93CDB7DEB7109256
:10002000600080916000813208F020C01092610071
:1000300080916100813208F013C0109262008091BB
:100040006200813208F006C0809162008F5F809369
:100050006200F5CF809161008F5F80936100E8CFEF
:10006000809160008F5F80936000DBCFDF91CF9144
:100070000895CBEDD0E0DEBFCDBFF8941FD125D1E0
:1000800006D181E08A838A81863008F005C0C3DF0B
:100090008A818F5F8A83F7CF1A8219827894809140
:1000A00064008823A1F48091690090916A00019610
:1000B00090936A00809369008091690090916A0032
:1000C000843B910520F010926A00109269009A8199
:1000D00080916C00981730F08981882339F481E091
:1000E000898304C08981813009F419828091690073
:1000F00090916A008B839C838B819C8180359105D4
:1001000009F4A6C08B819C818135910508F042C01D
:100110008B819C818E31910509F48BC08B819C81F0
:100120008F319105C0F48B819C818A30910509F44F
:100130007AC08B819C818B30910530F48B819C81BE
:10014000009709F46DC0ABCF8B819C818431910500
:1001500009F46CC0A4CF8B819C818233910509F492
:100160006EC08B819C818333910538F48B819C8197
:100170008832910509F460C092CF8B819C818C33C9
:10018000910509F45FC08B819C818634910509F447
:100190005CC085CF8B819C818238910509F467C052
:1001A0008B819C8183389105F8F48B819C81843606
:1001B000910509F453C08B819C818536910538F4F3
:1001C0008B819C818A35910509F445C068CF8B816C
:1001D0009C818E36910509F444C08B819C818837BF
:1001E000910509F441C05BCF8B819C8186399105D3
:1001F00009F443C08B819C818739910530F48B8150
:100200009C818C389105B1F14ACF8B819C81803AD9
:100210009105B1F18B819C818A3A9105A1F13FCF83
:1002200085E08A833CCF85E08A8339CF85E08A8365
:1002300036CF85E08A8333CF86E08A8330CF86E06D
:100240008A832DCF87E08A832ACF87E08A8327CFCE
:1002500088E08A8324CF88E08A8321CF89E08A835B
:100260001ECF89E08A831BCF88E08A8318CF88E07D
:100270008A8315CF87E08A8312CF87E08A830FCFE6
:1002800086E08A830CCF86E08A8309CFFFCF82E0A5
:100290008093530081E08093520081E880934F0067
:1002A00085E080934E0010924D008FEF80934C00BC
:1002B00010924B008FE780934A0008958FEF809350
:1002C00037008FE7809331000895109264001092F8
:1002D00065001092660010926700109268001092FC
:1002E0006A00109269008AE080936B0010926C00A3
:1002F00008951F920F920FB60F9211248F939F9320
:10030000CF93DF93CDB7DEB784E680935200809120
:1003100063008F5F8093630080916C008F5F809398
:100320006C0090916C0080916B00981710F0109207
:100330006C00809163008A3070F1109263008091AC
:1003400064008F5F80936400809164008A3019F5A7
:1003500010926400809165008F5F809365008091AA
:1003600065008A30C1F410926500809166008F5F4D
:1003700080936600809166008A3069F4109266006E
:10038000809167008F5F80936700809167008A305B
:1003900011F410926700DF91CF919F918F910F9090
:1003A0000FBE0F901F90189564CE63CE62CE61CEC3
:1003B0001F920F920FB60F9211248F93CF93DF935A
:1003C000CDB7DEB783E080934D0088EE80934C007C
:1003D000DF91CF918F910F900FBE0F901F901895C6
:0803E00048CE47CE46CE45CEC3
:00000001FF
