:100000000AC037C250C269C269C269C218C268C296
:1000100068C268C268C2CEEDD0E0DEBFCDBF198233
:10002000F894D7D1DFD1C5D1CAD1EBD0789488E488
:100030005BD285E459D28CE457D28CE455D28FE45C
:1000400053D28AE051D28DE04FD2809174009091CA
:1000500075000196909375008093740080916900FB
:10006000992782709070009709F45FC080917300A7
:100070008F5F8093730083E737D283E635D281E6C2
:1000800033D28EE631D280E42FD28DE32DD280910F
:10009000740090917500892F9927898389818093B5
:1000A0006F008FE690E048D08FE690E088D0809196
:1000B0007400909175008983898180936F008FE629
:1000C00090E03AD08FE690E07AD089E00DD280912E
:1000D000730080936C008CE690E02ED08CE690E06C
:1000E0006ED088E701D280E3FFD18DE6FDD183E7B2
:1000F000FBD185E6F9D183E6F7D189E0F5D183E636
:10010000F3D18EE6F1D184E7EFD18DE3EDD180918B
:10011000720080936C008CE690E00ED08CE690E04C
:100120004ED08AE0E1D18DE0DFD180916B00837009
:10013000809338006DD089CFCF93DF93CDB7DEB7F2
:1001400024970FB6F894DEBF0FBECDBF9A83898384
:10015000E981FA8180818F708B838B818A3020F4D2
:100160008B81805D8B8303C08B81895C8B838B81CA
:100170008C83E981FA8180818B838B8182958F705A
:100180008B838B818A3020F48B81805D8B8303C0CD
:100190008B81895C8B83E981FA818B818083898162
:1001A0009A81F92FE82F31968C81808324960FB69F
:1001B000F894DEBF0FBECDBFDF91CF9108959A8333
:1001C00089831B828B81282F332789819A81F32F82
:1001D000E22FE80FF91F8081882391F0AC2FBD2F0B
:1001E00013964C91842F282F332789819A81F32FDE
:1001F000E22FE80FF91F4F5F4C93808175D1E2CF5A
:10020000089580E48093290088E080932A0008956F
:100210001092690080916800992781709070009712
:1002200009F460C0809161008F5F809361008091CC
:1002300060008F5F80936000809161008A3060F081
:1002400010926100809162008F5F809362008091C4
:100250006800826080936800809162008A3060F05C
:1002600010926200809163008F5F809363008091A1
:100270006800846080936800809163008A3060F039
:1002800010926300809164008F5F8093640080917E
:100290006800886080936800809164008C3360F00F
:1002A00010926400809165008F5F8093650080915B
:1002B0006800806180936800809165008C3360F0F5
:1002C00010926500809166008F5F80936600809138
:1002D000680080628093680080916600883110F029
:1002E0001092660080916800992781709070009745
:1002F00051F0809168008E7F809368008091690042
:100300008160809369008091680099278270907065
:10031000009751F0809168008D7F809368008091F4
:1003200069008260809369008091680099278470D9
:100330009070009751F0809168008B7F80936800E7
:10034000809169008460809369008091680099279A
:1003500088709070009751F080916800877F80933B
:1003600068008091690088608093690080916800CE
:10037000992780719070009751F0809168008F7E6E
:10038000809368008091690080618093690080910A
:100390006800992780729070009751F080916800F2
:1003A0008F7D8093680080916900806280936900EE
:1003B000089580EC80935B0010925500089584E0CE
:1003C0008093530089ED8093520082E0809359001E
:1003D00008958FEF809338008FEF8093370010924D
:1003E0003100089510926100109262001092630033
:1003F00010926400109265001092660010926700DF
:1004000010926800109269001092600010927200C1
:1004100010927300109275001092740010926B008D
:1004200010926C0010926D0010926E0080E3809329
:100430006F0080E3809370001092710008951F9206
:100440000F920FB60F9211248F93CF93DF93CDB7F6
:10045000DEB789ED809352008091680081608093BF
:100460006800DF91CF918F910F900FBE0F901F907A
:1004700018951F920F920FB60F9211248F93CF935E
:10048000DF93CDB7DEB78FEF80936A008091720063
:100490008F5F80937200DF91CF918F910F900FBE8D
:1004A0000F901F9018951F920F920FB60F92112464
:1004B0008F93CF93DF93CDB7DEB781E080936A004F
:1004C000809172008F5F80937200DF91CF918F9146
:1004D0000F900FBE0F901F9018959DCD9CCD9BCD7A
:1004E0009ACD99CD98CD97CD5D9BFECF8CB90895CF
:00000001FF
