:100000000AC0CDC1DDC1EDC1EDC1EDC195C1ECC1ED
:10001000FCC1FCC1FCC1B0E0A0E600270D93F1F7E4
:1000200000C0CCEDD0E0DEBFCDBFF89429D18FEF7A
:100030008093610035D110D116D1109261001A82DF
:100040000FC0F3D1E8E3F0E0809161008570808318
:10005000809161008095809361008A818F5F8A839F
:100060008A81853070F378941B8219821A82E0E3CA
:10007000F0E080818093A0008091A0008470809344
:10008000A0008091A000843021F484E08093A1003E
:100090003AC09091A0008091A1009817A1F18091A1
:1000A000A0008093A1009091A00084E08927809314
:1000B000A0008091A000843031F580919C00909147
:1000C0009D00A0919E00B0919F0084369105A105EE
:1000D000B10569F484EF91E0A0E0B0E080939C006A
:1000E00090939D00A0939E00B0939F000CC084E667
:1000F00090E0A0E0B0E080939C0090939D00A093DE
:100100009E00B0939F008091820090918300A09107
:100110008400B0918500982F80919B00981759F426
:100120008091820090918300A0918400B09185001D
:100130008E5C80939B0020918200309183004091DF
:100140008400509185008091970090919800A09133
:100150009900B0919A00281739074A075B0709F5FB
:10016000209182003091830040918400509185005D
:1001700080919C0090919D00A0919E00B0919F0065
:10018000820F931FA41FB51F809397009093980030
:10019000A0939900B0939A0080916100809580931C
:1001A0006100E8E3F0E080916100857080835FCFBB
:1001B000CF93DF93CDB7DEB725970FB6F894DEBFA8
:1001C0000FBECDBF9B838A837D836C8319822A8176
:1001D0003B818A819B8101969B838A836C2F7D2F33
:1001E0006F5F7F4F932F822F13D18981EC81FD8127
:1001F00080838C819D8101969D838C838981882356
:1002000031F08A819B818038910508F4E0CF2596F2
:100210000FB6F894DEBF0FBECDBFDF91CF9108952A
:100220009A8389830AC0E981FA81208189819A8130
:1002300001969A838983822FF4D0E981FA818081A3
:10024000882389F70895E9E2F0E080E48083EAE218
:10025000F0E088E980830895EBE5F0E01082E5E5C1
:10026000F0E010820895E3E5F0E084E08083E2E5C9
:10027000F0E089ED8083E9E5F0E082E08083089595
:10028000E7E3F0E085E08083E1E3F0E080E680836F
:10029000E6E4F0E080E88083E6E4F0E01082089590
:1002A00087E890E090939400809393008FE890E02B
:1002B000909396008093950087E890E0909390004B
:1002C00080938F0087E890E0909392008093910054
:1002D00084EF91E0A0E0B0E080939C0090939D00BB
:1002E000A0939E00B0939F002091820030918300E4
:1002F000409184005091850080919C0090919D00D8
:10030000A0919E00B0919F00820F931FA41FB51F64
:100310008093970090939800A0939900B0939A00CF
:100320008091820090918300A0918400B09185001B
:100330008E5C80939B0008951F920F920FB60F92D0
:1003400011248F939F93AF93BF93EF93FF93CF931A
:10035000DF93CDB7DEB7E2E5F0E089ED80838091F1
:10036000820090918300A0918400B0918500019655
:10037000A11DB11D8093820090938300A0938400FF
:10038000B0938500DF91CF91FF91EF91BF91AF9135
:100390009F918F910F900FBE0F901F9018951F92F5
:1003A0000F920FB60F921124CF93DF93CDB7DEB724
:1003B00032CEDF91CF910F900FBE0F901F90189506
:1003C0001F920F920FB60F921124CF93DF93CDB7E8
:1003D000DEB721CEDF91CF910F900FBE0F901F900F
:1003E000189519CE18CE17CE1F920F920FB60F92F6
:1003F0001124CF93DF93CDB7DEB70DCEDF91CF9130
:100400000F900FBE0F901F90189505CE04CE03CE0F
:10041000F72FE62FE199FECF8EBBE09A9DB3908334
:1004200008955D9BFECF8CB90895CF93DF93CDB730
:10043000DEB71092A2001DC01092A30011C010924E
:10044000A40005C08091A4008F5F8093A4008091D8
:10045000A4008132B8F38091A3008F5F8093A30042
:100460008091A300813258F38091A2008F5F809326
:10047000A2008091A2008132F8F2DF91CF9108951D
:100480008F939F9394E680E58A95F1F79A95D9F733
:100490009F918F9108958F939F9398EC88EC8A9504
:1004A000F1F79A95D9F79F918F9108950000000078
:1004B000000000000895CF93DF93CDB7DEB72397F8
:1004C0000FB6F894DEBF0FBECDBF84E08B83E7E3A9
:1004D000F0E080818A83E7E3F0E08FE08083E8E367
:1004E000F0E08B818083E8E3F0E08B81886080839B
:1004F000E8E3F0E08B81877F8083E6E3F0E08081B2
:100500008983E8E3F0E08B818083E8E3F0E08B818E
:1005100088608083E8E3F0E08B81877F808390E8C8
:100520008981892389838981803809F4D8CFE7E3D9
:10053000F0E08A81808323960FB6F894DEBF0FBE69
:10054000CDBFDF91CF910895CF93DF93CDB7DEB7C5
:1005500022970FB6F894DEBF0FBECDBF89836A83A2
:10056000898152D08A816FD022960FB6F894DEBF6F
:100570000FBECDBFDF91CF910895CF93DF93CDB75D
:10058000DEB780E083D080E181D095DFDF91CF912D
:100590000895CF93DF93CDB7DEB725970FB6F894C4
:1005A000DEBF0FBECDBF8A837C836B8310C08A8180
:1005B000883011F480E48A838A81883408F01A82B2
:1005C0008A819A819F5F9A831FD089813CD0EB8179
:1005D000FC818081898389818D838D81882311F0BD
:1005E00081E08D838D812B813C812F5F3F4F3C8348
:1005F0002B838823E1F625960FB6F894DEBF0FBE55
:10060000CDBFDF91CF910895CF93DF93CDB7DEB704
:1006100021970FB6F894DEBF0FBECDBF89838981C5
:100620008068898390EF8981892330D08981829580
:10063000807F2CD021960FB6F894DEBF0FBECDBFC1
:10064000DF91CF910895CF93DF93CDB7DEB7219798
:100650000FB6F894DEBF0FBECDBF8983998180EFBE
:100660008923826013D08981992782959295907F02
:100670009827807F9827826009D021960FB6F8943A
:10068000DEBF0FBECDBFDF91CF910895CF93DF9333
:10069000CDB7DEB721970FB6F894DEBF0FBECDBF42
:1006A00089839091A5008981892B8983E8E3F0E013
:1006B00089818083E8E3F0E0898188608083E8E3D2
:1006C000F0E08981877F8083F6DE21960FB6F8946B
:1006D000DEBF0FBECDBFDF91CF910895DCDEDBDE44
:1006E000DADE80E3D3DFD7DE80E3D0DFD4DE80E361
:1006F000CDDF80E2CBDF80E2C9DF80E8C7DF80E0CA
:10070000C5DF80E0C3DF80E0C1DF80E1BFDFC3DEA3
:1007100080E0BCDF80ECBADF80E0B8DF80E6B6DFE7
:0207200008953A
:00000001FF
