:100000000AC000C210C220C220C220C2CDC11FC27D
:1000100063C263C263C2B0E0A0E600270D93F1F7AC
:1000200000C0CCEDD0E0DEBFCDBFF89484D18AEA29
:10003000809362001A828A818A3090F45DD25CD209
:100040005BD25AD280916200807680933200809198
:1000500062008095809362008A818F5F8A83EBCFF4
:1000600071D15AD15ED192D381E0809362001A821D
:100070008A818A3090F440D23FD23ED23DD28091E4
:100080006200807680933200809162008095809338
:1000900062008A818F5F8A83EBCF109262001A829E
:1000A0008A81853090F428D227D226D225D2809119
:1000B0006200807680933200809162008095809308
:1000C00062008A818F5F8A83EBCF63E670E088E409
:1000D00090E0CCD063E670E080E0B6D263E670E0FA
:1000E0008BE090E0C3D0789419821B821A828091B1
:1000F000300080939D0080919D008C7180939D00C5
:1001000080919D008C3121F48CE180939E0038C059
:1001100090919D0080919E00981791F180919D0093
:1001200080939E0090919D008CE1892780939D0093
:1001300080919D00843019F41092620079D28091F0
:100140009D00883061F48FEF809362001092600010
:100150009091380080916000892B809338008091C5
:100160009D00803169F48AEA8093620081E0809387
:1001700060009091380080916000892B8093380056
:100180009091830080919C009817C1F48091830026
:100190008E5C80939C00AC2FBD2F12962C91822FE9
:1001A0009927F92FE82FED59FF4F2F5F2C9360818E
:1001B0008B8125D28A81803109F41A8220918300B3
:1001C0003091840040918500509186008091980084
:1001D00090919900A0919A00B0919B00281739073F
:1001E0004A075B07E9F58091830090918400A09114
:1001F0008500B09186008C509E4FAF4FBF4F8093CB
:10020000980090939900A0939A00B0939B008091DE
:100210006200809580936200FD2FEC2F3196208143
:10022000822F9927B92FA82FAD59BF4F2F5F208359
:10023000FD2FEC2F33968081982F8F5F8083892F3D
:100240006C91DDD18B81883011F480E48B838B81BC
:10025000893411F4EDD11B828981803109F419822E
:100260008091620080768093320041CFCF93DF93FC
:10027000CDB7DEB725970FB6F894DEBF0FBECDBF62
:100280009A8389837C836B831D824C2F5D2F4B5F08
:100290005F4F89819A81282F392F01969A8389830C
:1002A000932F822F752F642F1AD1AC2FBD2F139649
:1002B0008D919C911197F92FE82F2D812083019624
:1002C00011969C938E938D81882309F405C08981B2
:1002D0009A8180389105C8F225960FB6F894DEBF52
:1002E0000FBECDBFDF91CF9108959A838983E981B5
:1002F000FA818081882341F0E981FA8180813196F9
:10030000FA83E983F5D0F3CF089580E48093290040
:1003100088E980932A00089510925B00109255009E
:10032000089584E08093530089ED8093520082E029
:100330008093590008958FEF8093370080E6809373
:100340003100089588E890E09093950080939400A0
:1003500080E990E0909397008093960088E890E081
:10036000909391008093900088E890E090939300A0
:10037000809392008091830090918400A0918500E9
:10038000B09186008C509E4FAF4FBF4F8093980026
:1003900090939900A0939A00B0939B008091830062
:1003A0008E5C80939C0008951F920F920FB60F925F
:1003B00011248F939F93AF93BF93CF93DF93CDB7C8
:1003C000DEB789ED80935200809183009091840084
:1003D000A0918500B09186000196A11DB11D80936A
:1003E000830090938400A0938500B0938600DF91F2
:1003F000CF91BF91AF919F918F910F900FBE0F90B2
:100400001F9018951F920F920FB60F921124CF9341
:10041000DF93CDB7DEB7FFCDDF91CF910F900FBE49
:100420000F901F9018951F920F920FB60F921124E4
:10043000CF93DF93CDB7DEB7EECDDF91CF910F90A5
:100440000FBE0F901F901895E6CDE5CDE4CD1F921D
:100450000F920FB60F9211242F933F938F939F9378
:10046000AF93BF93EF93FF93CF93DF93CDB7DEB7F7
:1004700080912C0080938700A2E9B0E08D919C913F
:100480001197F92FE82F209187002083019611966C
:100490009C938E93209192003091930080919600CE
:1004A000909197002817390741F48091940090911A
:1004B00095009093930080939200DF91CF91FF91EC
:1004C000EF91BF91AF919F918F913F912F910F909D
:1004D0000FBE0F901F9018959ECD9DCD9CCDF72FF0
:1004E000E62FE199FECF8EBBE09A9DB390830895ED
:1004F0005D9BFECF8CB90895CF93DF93CDB7DEB768
:1005000010929F0080919F008132F0F41092A00021
:100510008091A000813290F41092A1008091A100FE
:10052000813230F48091A1008F5F8093A100F6CFDB
:100530008091A0008F5F8093A000EACF80919F0000
:100540008F5F80939F00DECFDF91CF9108958F93CF
:100550009F9394E680E58A95F1F79A95D9F79F9154
:100560008F9108958F939F9398EC88EC8A95F1F77B
:100570009A95D9F79F918F9108950000000000008F
:1005800000000895CF93DF93CDB7DEB723970FB662
:10059000F894DEBF0FBECDBF84E089838091370021
:1005A0008A838FE080933700898180933800898126
:1005B0008860809338008981877F8093380080919C
:1005C00036008B838981809338008981886080938D
:1005D00038008981877F8093380090E88B81892358
:1005E0008B83803809F38A818093370023960FB676
:1005F000F894DEBF0FBECDBFDF91CF910895CF93AA
:10060000DF93CDB7DEB722970FB6F894DEBF0FBEEB
:10061000CDBF89836A83898152D08A816FD0229627
:100620000FB6F894DEBF0FBECDBFDF91CF91089516
:10063000CF93DF93CDB7DEB780E083D080E181D068
:10064000A1DFDF91CF910895CF93DF93CDB7DEB7D0
:1006500024970FB6F894DEBF0FBECDBF89837B838E
:100660006A83AC2FBD2F12968D919C911197F92F13
:10067000E82F2081019611969C938E932C83222340
:10068000A9F08981883011F480E4898389818834D4
:1006900008F01982FD2FEC2F31968081982F8F5F03
:1006A0008083892F0CD08C8129D0DBCF24960FB684
:1006B000F894DEBF0FBECDBFDF91CF910895CF93E9
:1006C000DF93CDB7DEB721970FB6F894DEBF0FBE2C
:1006D000CDBF898389818068898390EF898189234F
:1006E00030D089818295807F2CD021960FB6F894E6
:1006F000DEBF0FBECDBFDF91CF910895CF93DF93C3
:10070000CDB7DEB721970FB6F894DEBF0FBECDBFD1
:10071000898390EF89818923826013D08981992709
:1007200082959295907F9827807F9827826009D044
:1007300021960FB6F894DEBF0FBECDBFDF91CF91EB
:100740000895CF93DF93CDB7DEB721970FB6F89416
:10075000DEBF0FBECDBF898399818091A200892B16
:1007600089838981809338008981886080933800EB
:100770008981877F8093380005DF21960FB6F89432
:10078000DEBF0FBECDBFDF91CF910895EBDEEADE75
:10079000E9DE80E3D6DFE6DE80E3D3DFE3DE80E37D
:1007A000D0DF80E2CEDF80E2CCDF80E8CADF80E00D
:1007B000C8DF80E0C6DF80E0C4DF80E1C2DFD2DED8
:1007C00080E0BFDF80ECBDDF80E0BBDF80E6B9DF2B
:0207D00008958A
:00000001FF
